{
  "contractName": "CommonPot",
  "abi": [
    {
      "inputs": [
        {
          "internalType": "address",
          "name": "firstOwner",
          "type": "address"
        }
      ],
      "stateMutability": "nonpayable",
      "type": "constructor"
    },
    {
      "anonymous": false,
      "inputs": [
        {
          "indexed": true,
          "internalType": "address",
          "name": "_owner",
          "type": "address"
        },
        {
          "indexed": false,
          "internalType": "bool",
          "name": "_isOwner",
          "type": "bool"
        }
      ],
      "name": "OwnerChange",
      "type": "event"
    },
    {
      "anonymous": false,
      "inputs": [
        {
          "indexed": true,
          "internalType": "address",
          "name": "_sender",
          "type": "address"
        },
        {
          "indexed": false,
          "internalType": "uint256",
          "name": "_amount",
          "type": "uint256"
        },
        {
          "indexed": false,
          "internalType": "uint256",
          "name": "_total",
          "type": "uint256"
        }
      ],
      "name": "PotTransfer",
      "type": "event"
    },
    {
      "anonymous": false,
      "inputs": [
        {
          "indexed": true,
          "internalType": "address",
          "name": "_receiver",
          "type": "address"
        },
        {
          "indexed": false,
          "internalType": "uint256",
          "name": "_amount",
          "type": "uint256"
        },
        {
          "indexed": false,
          "internalType": "uint256",
          "name": "_total",
          "type": "uint256"
        }
      ],
      "name": "PotWithdraw",
      "type": "event"
    },
    {
      "inputs": [
        {
          "internalType": "address",
          "name": "",
          "type": "address"
        }
      ],
      "name": "ownerMapping",
      "outputs": [
        {
          "internalType": "bool",
          "name": "",
          "type": "bool"
        }
      ],
      "stateMutability": "view",
      "type": "function",
      "constant": true
    },
    {
      "stateMutability": "payable",
      "type": "receive",
      "payable": true
    },
    {
      "inputs": [
        {
          "internalType": "uint256",
          "name": "_amount",
          "type": "uint256"
        },
        {
          "internalType": "address payable",
          "name": "_address",
          "type": "address"
        }
      ],
      "name": "withdraw",
      "outputs": [],
      "stateMutability": "nonpayable",
      "type": "function"
    },
    {
      "inputs": [
        {
          "internalType": "uint256",
          "name": "_amount",
          "type": "uint256"
        }
      ],
      "name": "withdraw",
      "outputs": [],
      "stateMutability": "nonpayable",
      "type": "function"
    },
    {
      "inputs": [
        {
          "internalType": "address",
          "name": "person",
          "type": "address"
        }
      ],
      "name": "isOwner",
      "outputs": [
        {
          "internalType": "bool",
          "name": "",
          "type": "bool"
        }
      ],
      "stateMutability": "view",
      "type": "function",
      "constant": true
    },
    {
      "inputs": [
        {
          "internalType": "address",
          "name": "person",
          "type": "address"
        }
      ],
      "name": "addOwner",
      "outputs": [],
      "stateMutability": "nonpayable",
      "type": "function"
    },
    {
      "inputs": [
        {
          "internalType": "address",
          "name": "person",
          "type": "address"
        }
      ],
      "name": "removeOwner",
      "outputs": [],
      "stateMutability": "nonpayable",
      "type": "function"
    }
  ],
  "bytecode": "0x608060405234801561001057600080fd5b50604051610a35380380610a35833981810160405281019061003291906100f3565b60016000808373ffffffffffffffffffffffffffffffffffffffff1673ffffffffffffffffffffffffffffffffffffffff16815260200190815260200160002060006101000a81548160ff0219169083151502179055508073ffffffffffffffffffffffffffffffffffffffff167f978ce0ed973ab16db6f3686fdbbf4a2a4a341ecd048ffff4f64a939d8efdfba260016040516100d0919061012b565b60405180910390a25061019b565b6000815190506100ed81610184565b92915050565b60006020828403121561010557600080fd5b6000610113848285016100de565b91505092915050565b61012581610158565b82525050565b6000602082019050610140600083018461011c565b92915050565b600061015182610164565b9050919050565b60008115159050919050565b600073ffffffffffffffffffffffffffffffffffffffff82169050919050565b61018d81610146565b811461019857600080fd5b50565b61088b806101aa6000396000f3fe6080604052600436106100585760003560e01c8062f714ce146100b4578063173825d9146100dd5780632e1a7d4d146101065780632f54bf6e1461012f5780637065cb481461016c578063e205205d14610195576100af565b366100af573373ffffffffffffffffffffffffffffffffffffffff167f083ef5850d2d9790d748bdf73917606d096e3476684774f6d13ee15b4363370234476040516100a592919061077c565b60405180910390a2005b600080fd5b3480156100c057600080fd5b506100db60048036038101906100d69190610681565b6101d2565b005b3480156100e957600080fd5b5061010460048036038101906100ff919061062f565b6101e0565b005b34801561011257600080fd5b5061012d60048036038101906101289190610658565b610314565b005b34801561013b57600080fd5b506101566004803603810190610151919061062f565b610321565b6040516101639190610741565b60405180910390f35b34801561017857600080fd5b50610193600480360381019061018e919061062f565b610376565b005b3480156101a157600080fd5b506101bc60048036038101906101b7919061062f565b6104aa565b6040516101c99190610741565b60405180910390f35b6101dc82826104ca565b5050565b6000803373ffffffffffffffffffffffffffffffffffffffff1673ffffffffffffffffffffffffffffffffffffffff16815260200190815260200160002060009054906101000a900460ff1661026b576040517f08c379a00000000000000000000000000000000000000000000000000000000081526004016102629061075c565b60405180910390fd5b60008060008373ffffffffffffffffffffffffffffffffffffffff1673ffffffffffffffffffffffffffffffffffffffff16815260200190815260200160002060006101000a81548160ff0219169083151502179055508073ffffffffffffffffffffffffffffffffffffffff167f978ce0ed973ab16db6f3686fdbbf4a2a4a341ecd048ffff4f64a939d8efdfba260006040516103099190610741565b60405180910390a250565b61031e81336104ca565b50565b60008060008373ffffffffffffffffffffffffffffffffffffffff1673ffffffffffffffffffffffffffffffffffffffff16815260200190815260200160002060009054906101000a900460ff169050919050565b6000803373ffffffffffffffffffffffffffffffffffffffff1673ffffffffffffffffffffffffffffffffffffffff16815260200190815260200160002060009054906101000a900460ff16610401576040517f08c379a00000000000000000000000000000000000000000000000000000000081526004016103f89061075c565b60405180910390fd5b60016000808373ffffffffffffffffffffffffffffffffffffffff1673ffffffffffffffffffffffffffffffffffffffff16815260200190815260200160002060006101000a81548160ff0219169083151502179055508073ffffffffffffffffffffffffffffffffffffffff167f978ce0ed973ab16db6f3686fdbbf4a2a4a341ecd048ffff4f64a939d8efdfba2600160405161049f9190610741565b60405180910390a250565b60006020528060005260406000206000915054906101000a900460ff1681565b6000803373ffffffffffffffffffffffffffffffffffffffff1673ffffffffffffffffffffffffffffffffffffffff16815260200190815260200160002060009054906101000a900460ff16610555576040517f08c379a000000000000000000000000000000000000000000000000000000000815260040161054c9061075c565b60405180910390fd5b8073ffffffffffffffffffffffffffffffffffffffff166108fc839081150290604051600060405180830381858888f1935050505015801561059b573d6000803e3d6000fd5b503373ffffffffffffffffffffffffffffffffffffffff167fece6bdff0076393603f08647b76d5e80b8af1574b62162111815f4d5989d88cc83476040516105e492919061077c565b60405180910390a25050565b6000813590506105ff81610810565b92915050565b60008135905061061481610827565b92915050565b6000813590506106298161083e565b92915050565b60006020828403121561064157600080fd5b600061064f848285016105f0565b91505092915050565b60006020828403121561066a57600080fd5b60006106788482850161061a565b91505092915050565b6000806040838503121561069457600080fd5b60006106a28582860161061a565b92505060206106b385828601610605565b9150509250929050565b6106c6816107da565b82525050565b60006106d96024836107a5565b91507f4f6e6c7920616e206f776e65722063616e2063616c6c20746869732066756e6360008301527f74696f6e000000000000000000000000000000000000000000000000000000006020830152604082019050919050565b61073b81610806565b82525050565b600060208201905061075660008301846106bd565b92915050565b60006020820190508181036000830152610775816106cc565b9050919050565b60006040820190506107916000830185610732565b61079e6020830184610732565b9392505050565b600082825260208201905092915050565b60006107c1826107e6565b9050919050565b60006107d3826107e6565b9050919050565b60008115159050919050565b600073ffffffffffffffffffffffffffffffffffffffff82169050919050565b6000819050919050565b610819816107b6565b811461082457600080fd5b50565b610830816107c8565b811461083b57600080fd5b50565b61084781610806565b811461085257600080fd5b5056fea2646970667358221220247fc2a2969f2ed3bd7ccb40bd2c3a76d0a7c7b77722055af74df955544a352364736f6c63430008000033",
  "immutableReferences": {},
  "source": "// SPDX-License-Identifier: MIT\npragma solidity >=0.4.22 <0.9.0;\n\ncontract CommonPot {\n\n  mapping(address => bool) public ownerMapping;\n\n  event OwnerChange(\n    address indexed _owner,\n    bool _isOwner\n  );\n\n  event PotTransfer(\n    address indexed _sender,\n    uint _amount,\n    uint _total\n  );\n\n  event PotWithdraw(\n    address indexed _receiver,\n    uint _amount,\n    uint _total\n  );\n\n  constructor(address firstOwner) {\n    ownerMapping[firstOwner] = true;\n    emit OwnerChange(firstOwner, true);\n  }\n\n  modifier restricted {\n    require(ownerMapping[msg.sender], \"Only an owner can call this function\");\n    _;\n  }\n\n  receive() external payable {\n    emit PotTransfer(msg.sender, msg.value, address(this).balance);\n  }\n\n  function _withdraw(uint _amount, address payable _address) private restricted {\n    _address.transfer(_amount);\n    emit PotWithdraw(msg.sender, _amount, address(this).balance);\n  }\n\n  function withdraw(uint _amount, address payable _address) external {\n    _withdraw(_amount, _address);\n  }\n\n  function withdraw(uint _amount) external {\n    _withdraw(_amount, payable(msg.sender));\n  }\n\n  function isOwner(address person) public view returns (bool) {\n    return ownerMapping[person];\n  }\n\n  function addOwner(address person) public restricted {\n    ownerMapping[person] = true;\n    emit OwnerChange(person, true);\n  }\n\n  function removeOwner(address person) public restricted {\n    ownerMapping[person] = false;\n    emit OwnerChange(person, false);\n  }\n}\n",
  "sourcePath": "/home/nirinarabeson/workspace/personal/panini/panini-cagnotte/contracts/CommonPot.sol",
  "compiler": {
    "name": "solc",
    "version": "0.8.0+commit.c7dfd78e.Emscripten.clang"
  },
  "schemaVersion": "3.4.3",
  "updatedAt": "2021-08-29T17:42:56.604Z",
  "networkType": "ethereum",
  "devdoc": {
    "kind": "dev",
    "methods": {},
    "version": 1
  },
  "userdoc": {
    "kind": "user",
    "methods": {},
    "version": 1
  }
}